:100000000C944D010C9475010C9475010C947501C0
:100010000C9475010C9475010C9475010C94750188
:100020000C9475010C9475010C9475010C94750178
:100030000C9475010C9475010C9475010C94750168
:100040000C94AF040C9475010C9475010C9475011B
:100050000C9475010C9475010C9475010C94750148
:100060000C9475010C947501000000000000005F05
:1000700000000007000700147F147F14242A7F2A41
:10008000122313086462364955225000050300000C
:10009000001C2241000041221C0014083E081408E4
:1000A000083E0808005030000008080808080060F2
:1000B00060000020100804023E5149453E00427F86
:1000C000400042615149462141454B311814127F8D
:1000D0001027454545393C4A494930017109050316
:1000E0003649494936064949291E0036360000007E
:1000F0005636000008142241001414141414004150
:100100002214080201510906324979413E7E11113B
:10011000117E7F494949363E414141227F4141227A
:100120001C7F494949417F090909013E4149497AF2
:100130007F0808087F00417F41002040413F017F48
:10014000081422417F404040407F020C027F7F0420
:1001500008107F3E4141413E7F090909063E415159
:10016000215E7F09192946464949493101017F012C
:10017000013F4040403F1F2040201F3F4038403F4C
:100180006314081463070870080761514945430068
:100190007F41410002040810200041417F00040219
:1001A0000102044040404040000102040020545439
:1001B00054787F48444438384444442038444448C0
:1001C0007F3854545418087E0901020C5252523E92
:1001D0007F0804047800447D40002040443D007FB7
:1001E0001028440000417F40007C041804787C08FB
:1001F00004047838444444387C1414140808141453
:10020000187C7C080404084854545420043F44409B
:10021000203C4040207C1C2040201C3C4030403C86
:1002200044281028440C5050503C4464544C440022
:100230000836410000007F00000041360800100829
:100240000810080000000000000000080002010083
:100250000003040700000000000000000102040881
:100260001020408001020408102001020408102020
:10027000040404040404040402020202020203034C
:100280000303030300000000250028002B000000EA
:100290000000240027002A00290211241FBECFEFEE
:1002A000D8E0DEBFCDBF11E0A0E0B1E0E8EEF6E1BE
:1002B00002C005900D92A834B107D9F721E0A8E457
:1002C000B1E001C01D92A13AB207E1F712E0CAE91C
:1002D000D2E004C02297FE010E94560BC839D10714
:1002E000C9F70E9477060C94720B0C94000021E071
:1002F00040E364E588E491E00E94D4024CE251E0DE
:1003000061E088E491E00E94590261E08DE00E9482
:10031000C80583E00C947F05AF92BF92CF92DF9225
:10032000EF92FF920F931F9361E08DE00E94010610
:1003300080E00E948205BC01882777FD8095982F78
:100340000E94A9092DEC3CEC4CE85FE30E945D0A99
:1003500020E030E048EC52E40E945D0A20E030E00A
:1003600040E85AE30E945D0A6B017C0140E060E0D6
:1003700088E491E00E9486026CE071E088E491E0FC
:100380000E94C40621E030E0B701A60188E491E0B4
:100390000E945B0863E171E088E491E00E94C4067A
:1003A00044E060E088E491E00E94860222E04AE0B6
:1003B00068E171E088E491E00E94C60380910A013F
:1003C000843518F08CE080930A0141E060910A01C5
:1003D00088E491E00E948602C701B6010E94760976
:1003E0001F921F921F9228E22F93A12CB12C65011E
:1003F0001DE2E12EF12C00E010E020E030E0A90148
:100400000E945D08462F65E088E491E00E94270481
:1004100040E065E088E491E00E94270480910A01B1
:100420008F5F80930A0160E08DE00E9401060F90CB
:100430000F900F900F9064EF71E080E090E01F91BB
:100440000F91FF90EF90DF90CF90BF90AF900C9402
:100450001C05CF92EF920F9337E0C32E45E0E42EB8
:1004600006E024E043E062E088E491E00E943C0280
:100470000F91EF90CF900895CF92EF920F93FC01E0
:100480001382128285E391E09183808364834583A4
:1004900026830783E086C1860F91EF90CF90089561
:1004A000662311F061E001C060E0FC0181850C94DD
:1004B0000106603238F4FC01E60FF11DE60FF11D74
:1004C000518B408B08950F931F93CF93DF931F920F
:1004D000CDB7DEB78C01FC01868149830E940106FD
:1004E00060E0F80180850E940106298141E0F80161
:1004F000648185810E94370661E0F80180850F9054
:10050000DF91CF911F910F910C940106CF93DF9350
:10051000EC01862F6A850E94D40A292F9E87842F9A
:1005200090E06B8539E3639F612D1124669570E03F
:100530006F5F7F4F0E94E00A8F87422F406860E024
:10054000CE010E9463024F85406460E0CE01DF91DE
:10055000CF910C9463020F931F93CF93DF93EC0121
:1005600040E060E00E94860200E010E09A858B8502
:10057000869586958695989FC001112408171907BE
:1005800050F44C854170419561E0CE010E946302B8
:100590000F5F1F4FEBCF40E060E0CE01DF91CF91C6
:1005A0001F910F910C948602CF93DF93EC016A8721
:1005B0004B871E861F861C86FC01709680E4DF0137
:1005C0001D928A95E9F761E08C810E94C80561E07F
:1005D0008D810E94C80561E08E810E94C80561E09E
:1005E0008F810E94C80561E088850E94C80561E08E
:1005F00089850E94C80560E0CE010E94500261E03A
:100600008F810E94010661E088850E94010660E0FA
:100610008F810E94010664E670E080E090E00E9415
:100620001C0561E08F810E94010641E260E0CE017D
:100630000E94630249EB60E0CE010E94630289EBF5
:100640008D8746E060E0CE010E94630243E160E0F6
:10065000CE010E94630240E260E0CE010E9463028C
:100660004CE060E0CE010E946302CE010E94AB022A
:1006700040E860E0CE010E94630240E460E0CE0109
:10068000DF91CF910C946302DF92EF92FF920F9370
:100690001F93CF93DF9300D000D01F92CDB7DEB76A
:1006A0008C0167FD61C0E62FF0E0603298F0B097F2
:1006B00085E08E9FB0018F9F700D112468597F4F88
:1006C00045E050E0CE0101960E94690BCE010196F3
:1006D0007C0115C03896EE0FFF1FE00FF11FE08080
:1006E000F180E114F10459F445E050E068E670E06F
:1006F000CE0101960E94690BFE0131967F0185E0D3
:10070000D82EF8018485F701408180FD409561E095
:10071000C8010E946302DA94FFEFEF1AFF0AD110BA
:10072000F0CFF80144854170419561E0C8010E9415
:100730006302F801868590E00696628570E00E946B
:10074000E00A8687892B99F4878590E00196638576
:1007500029E3629F612D1124669570E06F5F7F4FE2
:100760000E94E00A878703C080E090E002C081E039
:1007700090E00F900F900F900F900F90DF91CF911E
:100780001F910F91FF90EF90DF9008955F926F920D
:100790007F928F929F92AF92BF92CF92DF92EF9211
:1007A000FF920F931F93CF93DF93EC01842E722E51
:1007B000AE84BF846A84E42EF12CF701EA0DF11DAA
:1007C000862D90E08E179F0714F46A1801C0642EDE
:1007D0002B85269526952695872D90E08B0D911DCE
:1007E000E22FF0E0E817F90714F4722E7B188B0162
:1007F000912C9714B9F0492D4B0D6A2DCE010E9412
:1008000086026801512C561449F0F60141916F019E
:1008100061E0CE010E9463025394F5CF93940E0DD4
:100820001F1DE7CF682D6A0D4B2DCE01DF91CF91B3
:100830001F910F91FF90EF90DF90CF90BF90AF90FE
:100840009F908F907F906F905F900C9486027F9224
:100850008F929F92AF92BF92CF92DF92EF92FF92D0
:100860000F931F93CF93DF93EC01962EAE84BF843A
:10087000C62ED12CC60163E0880F991F6A95E1F757
:10088000242F30E08217930724F4492D440F440F9E
:10089000440FE42EF12C01978E199F0997FD0796BE
:1008A0008C0153E0159507955A95E1F7802E712C30
:1008B000781468F4472D4B0D6A2DCE010E948602F4
:1008C00040E061E0CE010E9463027394F1CF960193
:1008D000201B310943E0220F331F4A95E1F72E19FF
:1008E0003F0940E0FF24FA94842F90E08217930799
:1008F0001CF4FF0C4F5FF8CF4B2D400F6A2DCE013B
:100900000E9486024F2D61E0CE010E94630200E04A
:1009100010E00F5F1F4F882D800F891568F44B2D55
:10092000400F480D6A2DCE010E9486024FEF61E014
:10093000CE010E946302EDCF61E06A0D4B2DCE0126
:10094000DF91CF911F910F91FF90EF90DF90CF90AB
:10095000BF90AF909F908F907F900C9486021F92D3
:100960000F920FB60F9211242F933F938F939F9363
:10097000AF93BF938091990190919A01A0919B01AF
:10098000B0919C013091980123E0230F2D3720F482
:100990000196A11DB11D05C026E8230F0296A11DD9
:1009A000B11D209398018093990190939A01A0938F
:1009B0009B01B0939C0180919D0190919E01A0911B
:1009C0009F01B091A0010196A11DB11D80939D01D1
:1009D00090939E01A0939F01B093A001BF91AF910E
:1009E0009F918F913F912F910F900FBE0F901F906D
:1009F00018953FB7F89480919D0190919E01A09128
:100A00009F01B091A00126B5A89B05C02F3F19F00A
:100A10000196A11DB11D3FBF6627782F892F9A2F00
:100A2000620F711D811D911D42E0660F771F881FA7
:100A3000991F4A95D1F70895CF92DF92EF92FF92D6
:100A4000CF93DF936B017C010E94F904EB01C11489
:100A5000D104E104F10489F00E94A4080E94F90481
:100A60006C1B7D0B683E734090F381E0C81AD1087F
:100A7000E108F108C851DC4FEACFDF91CF91FF9038
:100A8000EF90DF90CF900895789484B5826084BD14
:100A900084B5816084BD85B5826085BD85B5816082
:100AA00085BDEEE6F0E0808181608083E1E8F0E0E2
:100AB0001082808182608083808181608083E0E811
:100AC000F0E0808181608083E1EBF0E080818460F0
:100AD0008083E0EBF0E0808181608083EAE7F0E0F2
:100AE0008081846080838081826080838081816056
:100AF00080838081806880831092C10008958093F4
:100B00000B0108958E3008F08E50877020910B01F4
:100B100090E4299F90011124822B80937C00809186
:100B20007A00806480937A0080917A0086FDFCCF01
:100B3000809178002091790090E0922B0895833085
:100B400081F028F4813099F08230A1F00895873047
:100B5000A9F08830B9F08430D1F4809180008F7D85
:100B600003C0809180008F7780938000089584B5C2
:100B70008F7702C084B58F7D84BD08958091B000C9
:100B80008F7703C08091B0008F7D8093B00008956F
:100B9000CF93DF9390E0FC01E45AFD4F2491FC01D8
:100BA000E059FD4F8491882349F190E0880F991F07
:100BB000FC01E257FD4FA591B4918C579D4FFC016C
:100BC000C591D4919FB7611108C0F8948C9120957C
:100BD00082238C93888182230AC0623051F4F89476
:100BE0008C91322F309583238C938881822B88833C
:100BF00004C0F8948C91822B8C939FBFDF91CF918E
:100C000008950F931F93CF93DF931F92CDB7DEB755
:100C1000282F30E0F901E85BFD4F8491F901E45A97
:100C2000FD4F1491F901E059FD4F04910023C9F0E3
:100C3000882321F069830E949F056981E02FF0E0FD
:100C4000EE0FFF1FEC57FD4FA591B4919FB7F8949D
:100C50008C91611103C01095812301C0812B8C936D
:100C60009FBF0F90DF91CF911F910F910895BF9279
:100C7000CF92DF92EF92FF920F931F93CF93DF9368
:100C8000C82ED62EB42EC7E0D0E0022F10E087E0A9
:100C9000E82EF12CB1100AC0F701EC1BFD0BB801D6
:100CA00002C075956795EA95E2F707C0B8010C2E6A
:100CB00002C0759567950A94E2F7617077278C2DCD
:100CC0000E94010661E08D2D0E94010660E08D2DDD
:100CD0000E9401062197F0F6DF91CF911F910F91AD
:100CE000FF90EF90DF90CF90BF90089508950E94FD
:100CF00044050E9476060E947701C0E0D0E00E9481
:100D00008C012097E1F30E940000F9CFCF92DF928F
:100D1000EF92FF920F931F93CF93DF936C017A01B1
:100D2000EB01E60EF71E00E010E0CE15DF0561F0E6
:100D30006991D601ED91FC910190F081E02DC60101
:100D40000995080F191FF1CFC801DF91CF911F91AD
:100D50000F91FF90EF90DF90CF900895611571058E
:100D600081F0DB010D900020E9F7AD014150510900
:100D7000461B570BDC01ED91FC910280F381E02DC5
:100D8000099480E090E008950C94AE06DC01ED91AA
:100D9000FC910190F081E02D09948F929F92AF9287
:100DA000BF92CF92DF92EF92FF920F931F93CF9358
:100DB000DF93CDB7DEB7A1970FB6F894DEBF0FBEB5
:100DC000CDBF7C01C42EE52FCB01D22E19A221E08C
:100DD0002D1510F02AE0D22E8E010F5D1F4F8D2CA5
:100DE000912CA12CB12C6C2D7E2FA50194010E9479
:100DF000F40A8C2DD29E80191124015011098A30D9
:100E000014F4805D01C0895CF801808321153105EF
:100E10004105510521F0C22EE32FCA01E4CFB801EC
:100E2000C7010E94AE06A1960FB6F894DEBF0FBEB2
:100E3000CDBFDF91CF911F910F91FF90EF90DF9089
:100E4000CF90BF90AF909F908F900895CF92DF92F8
:100E5000EF92FF920F931F93CF93DF93EC016A0100
:100E60007B012115310579F4E881F9810190F08148
:100E7000E02D642FDF91CF911F910F91FF90EF90A4
:100E8000DF90CF9009942A303105E9F477FF1AC03A
:100E90006DE20E94C6068C0144275527BA014C1901
:100EA0005D096E097F092AE0CE010E94CD06800F00
:100EB000911FDF91CF911F910F91FF90EF90DF90E5
:100EC000CF9008952AE0B701A601CE01DF91CF911E
:100ED0001F910F91FF90EF90DF90CF900C94CD0673
:100EE0004F925F926F927F928F929F92AF92BF923A
:100EF000CF92DF92EF92FF920F931F93CF93DF93E6
:100F0000EC016A017B01B22E9A01AB01C701B60167
:100F10000E94C00A882319F069E371E027C0260106
:100F20003701E89477F82FEF3FEF4FE75FE7C30112
:100F3000B2010E94C00A81110DC02FEF3FEF4FE7B1
:100F40005FE7C301B2010E940A0918161CF46DE3A1
:100F500071E00CC02FEF3FEF4FE75FE4C701B60130
:100F60000E94590A1816ACF461E471E0CE01DF91D9
:100F7000CF911F910F91FF90EF90DF90CF90BF9096
:100F8000AF909F908F907F906F905F904F900C9458
:100F9000AE062FEF3FEF4FE75FECC701B6010E94AF
:100FA0000A0987FDE1CF20E030E0A901C701B601C1
:100FB0000E940A0987FF0AC06DE2CE010E94C606A0
:100FC0008C01F7FAF094F7F8F09402C000E010E01A
:100FD000A12C60E070E080E09FE3AB1441F020E0E2
:100FE00030E040E251E40E940E09A394F6CF9B0149
:100FF000AC01C701B6010E94A6086B017C010E94EA
:101000007B092B013C010E94A7099B01AC01C70190
:10101000B6010E94A5086B017C012AE0B301A20180
:10102000CE010E94CD06080F191FBB2039F065E4E0
:1010300071E0CE010E94AE06080F191F7B2C7720AD
:1010400041F120E030E040E251E4C701B6010E94E6
:101050005D0A6B017C010E9476094B01AA2497FC72
:10106000A094BA2C2AE030E0B501A401CE010E9480
:101070002607080F191FC501B4010E94A9099B0189
:10108000AC01C701B6010E94A5086B017C017A94EE
:10109000D6CFC801DF91CF911F910F91FF90EF90B4
:1010A000DF90CF90BF90AF909F908F907F906F9088
:1010B0005F904F9008950C9470074F925F926F92DB
:1010C0007F92AF92BF92CF92DF92EF92FF920F93F7
:1010D0001F93CF93DF93CDB7DEB729013A01621B8F
:1010E000730B840B950B29893A894B895C892A19E2
:1010F0003B094C095D09298B3A8B4B8B5C8B9B011F
:10110000AC0169897A898B899C890E94C40AE41898
:10111000F50806091709A80197010E94160B2A0D68
:101120003B1D4C1D5D1DCA01B901DF91CF911F917F
:101130000F91FF90EF90DF90CF90BF90AF907F9096
:101140006F905F904F90089508955058BB27AA273D
:101150000ED075C166D130F06BD120F031F49F3FD5
:1011600011F41EF45BC10EF4E095E7FB51C1E92FC9
:1011700077D180F3BA17620773078407950718F0D1
:1011800071F49EF58FC10EF4E0950B2EBA2FA02DB1
:101190000B01B90190010C01CA01A0011124FF2724
:1011A000591B99F0593F50F4503E68F11A16F0401F
:1011B000A22F232F342F4427585FF3CF469537951E
:1011C0002795A795F0405395C9F77EF41F16BA0BE3
:1011D000620B730B840BBAF09150A1F0FF0FBB1F91
:1011E000661F771F881FC2F70EC0BA0F621F731FDA
:1011F000841F48F4879577956795B795F7959E3F37
:1012000008F0B3CF9395880F08F09927EE0F9795C4
:1012100087950895D9D008F481E008950CD00FC1C6
:1012200007D140F0FED030F021F45F3F19F0F0C05C
:10123000511139C1F3C014D198F39923C9F355233F
:10124000B1F3951B550BBB27AA27621773078407B9
:1012500038F09F5F5F4F220F331F441FAA1FA9F36F
:1012600033D00E2E3AF0E0E830D091505040E69561
:10127000001CCAF729D0FE2F27D0660F771F881FC2
:10128000BB1F261737074807AB07B0E809F0BB0BB1
:10129000802DBF01FF2793585F4F2AF09E3F5105D5
:1012A00068F0B6C000C15F3FECF3983EDCF3869572
:1012B00077956795B795F7959F5FC9F7880F911D4B
:1012C0009695879597F90895E1E0660F771F881F37
:1012D000BB1F621773078407BA0720F0621B730BEA
:1012E000840BBA0BEE1F88F7E095089504D068943C
:1012F000B111D9C00895BCD088F09F5790F0B92F94
:101300009927B751A0F0D1F0660F771F881F991F5A
:101310001AF0BA95C9F712C0B13081F0C3D0B1E06C
:101320000895C0C0672F782F8827B85F39F0B93F7C
:10133000CCF3869577956795B395D9F73EF490955C
:101340008095709561957F4F8F4F9F4F0895E894DA
:1013500009C097FB3EF490958095709561957F4FFD
:101360008F4F9F4F9923A9F0F92F96E9BB279395AB
:10137000F695879577956795B795F111F8CFFAF4BB
:10138000BB0F11F460FF1BC06F5F7F4F8F4F9F4FEC
:1013900016C0882311F096E911C0772321F09EE84A
:1013A000872F762F05C0662371F096E8862F70E0B0
:1013B00060E02AF09A95660F771F881FDAF7880F8A
:1013C0009695879597F90895990F0008550FAA0BE0
:1013D000E0E8FEEF16161706E807F907C0F0121648
:1013E0001306E407F50798F0621B730B840B950B4B
:1013F00039F40A2661F0232B242B252B21F40895A0
:101400000A2609F4A140A6958FEF811D811D08953C
:1014100097F99F6780E870E060E008959FEF80ECA7
:10142000089500240A94161617061806090608954A
:1014300000240A9412161306140605060895092EB0
:101440000394000C11F4882352F0BB0F40F4BF2B1F
:1014500011F460FF04C06F5F7F4F8F4F9F4F08955F
:1014600057FD9058440F551F59F05F3F71F0479555
:10147000880F97FB991F61F09F3F79F0879508953A
:10148000121613061406551FF2CF4695F1DF08C059
:10149000161617061806991FF1CF86957105610576
:1014A00008940895E894BB2766277727CB0197F91E
:1014B00008958ADF08F48FEF08950BD0C0CFB1DF15
:1014C00028F0B6DF18F0952309F0A2CFA7CF11249A
:1014D000EACFC6DFA0F3959FD1F3950F50E0551FDB
:1014E000629FF001729FBB27F00DB11D639FAA2779
:1014F000F00DB11DAA1F649F6627B00DA11D661FC8
:10150000829F2227B00DA11D621F739FB00DA11DE8
:10151000621F839FA00D611D221F749F3327A00DA2
:10152000611D231F849F600D211D822F762F6A2F3E
:1015300011249F5750408AF0E1F088234AF0EE0FC3
:10154000FF1FBB1F661F771F881F91505040A9F7D0
:101550009E3F510570F05CCFA6CF5F3FECF3983E05
:10156000DCF3869577956795B795F795E7959F5F37
:10157000C1F7FE2B880F911D9695879597F90895D1
:1015800023DF880B990B0895DB018F939F930E94B3
:10159000350BBF91AF91A29F800D911DA39F900D20
:1015A000B29F900D11240895991B79E004C0991FF2
:1015B000961708F0961B881F7A95C9F780950895AD
:1015C00097FB072E16F4009407D077FD09D00E94F0
:1015D000400B07FC05D03EF4909581959F4F0895F0
:1015E000709561957F4F0895A1E21A2EAA1BBB1B2F
:1015F000FD010DC0AA1FBB1FEE1FFF1FA217B307DF
:10160000E407F50720F0A21BB30BE40BF50B661FF4
:10161000771F881F991F1A9469F7609570958095B8
:1016200090959B01AC01BD01CF010895052E97FB5C
:101630001EF400940E942D0B57FD07D00E94F40A5F
:1016400007FC03D04EF40C942D0B5095409530952B
:1016500021953F4F4F4F5F4F08959095809570951E
:1016600061957F4F8F4F9F4F08950E945A0BA59F02
:10167000900DB49F900DA49F800D911D112408958D
:10168000AA1BBB1B51E107C0AA1FBB1FA617B707A8
:1016900010F0A61BB70B881F991F5A95A9F78095C4
:1016A0009095BC01CD010895EE0FFF1F0590F491B8
:1016B000E02D0994A29FB001B39FC001A39F700DBC
:1016C000811D1124911DB29F700D811D1124911D4A
:1016D0000895FB01DC0102C005900D92415050407D
:0816E000D8F70895F894FFCF3C
:1016E8000000A101800001000000540154656D70E4
:1016F8003A20002001432000000048FE01FE0002BD
:101708000502000062FFFEFF6000000000070507F9
:101718000000000000440386066E616E00696E6674
:08172800006F7666002E000040
:00000001FF
