:100000000C944D010C9475010C9475010C947501C0
:100010000C9475010C9475010C9475010C94750188
:100020000C9475010C9475010C9475010C94750178
:100030000C9475010C9475010C9475010C94750168
:100040000C9458030C9475010C9475010C94750173
:100050000C9475010C9475010C9475010C94750148
:100060000C9475010C947501000000000000005F05
:1000700000000007000700147F147F14242A7F2A41
:10008000122313086462364955225000050300000C
:10009000001C2241000041221C0014083E081408E4
:1000A000083E0808005030000008080808080060F2
:1000B00060000020100804023E5149453E00427F86
:1000C000400042615149462141454B311814127F8D
:1000D0001027454545393C4A494930017109050316
:1000E0003649494936064949291E0036360000007E
:1000F0005636000008142241001414141414004150
:100100002214080201510906324979413E7E11113B
:10011000117E7F494949363E414141227F4141227A
:100120001C7F494949417F090909013E4149497AF2
:100130007F0808087F00417F41002040413F017F48
:10014000081422417F404040407F020C027F7F0420
:1001500008107F3E4141413E7F090909063E415159
:10016000215E7F09192946464949493101017F012C
:10017000013F4040403F1F2040201F3F4038403F4C
:100180006314081463070870080761514945430068
:100190007F41410002040810200041417F00040219
:1001A0000102044040404040000102040020545439
:1001B00054787F48444438384444442038444448C0
:1001C0007F3854545418087E0901020C5252523E92
:1001D0007F0804047800447D40002040443D007FB7
:1001E0001028440000417F40007C041804787C08FB
:1001F00004047838444444387C1414140808141453
:10020000187C7C080404084854545420043F44409B
:10021000203C4040207C1C2040201C3C4030403C86
:1002200044281028440C5050503C4464544C440022
:100230000836410000007F00000041360800100829
:100240000810080000000000000000080002010083
:100250000003040700000000000000000102040881
:100260001020408001020408102001020408102020
:10027000040404040404040402020202020203034C
:100280000303030300000000250028002B000000EA
:100290000000240027002A00850111241FBECFEF93
:1002A000D8E0DEBFCDBF11E0A0E0B1E0E2EDFCE0C0
:1002B00002C005900D92A232B107D9F721E0A2E267
:1002C000B1E001C01D92AD37B207E1F712E0CAE913
:1002D000D2E004C02297FE010E945A06C839D10715
:1002E000C9F70E9400050C9467060C94000021E0F9
:1002F00040E364E584E291E00E94660244E151E05B
:1003000060E084E291E00C94EB01CF92EF920F93C6
:1003100087E0C82E95E0E92E06E024E043E062E0A5
:1003200084E291E00E94CE010F91EF90CF9008956A
:1003300040E060E084E291E00E94180266E071E033
:1003400084E291E00E944D0541E060E084E291E0AA
:100350000E94180260912201709123014AE050E04E
:1003600084E291E00E94F90560E284E291E00E945B
:10037000D60260E084E291E00E94D60264EF71E070
:1003800080E090E00E94C5038091220190912301BA
:10039000019690932301809322010895CF92EF92CA
:1003A0000F93FC01138212828DE191E0918380838F
:1003B0006483458326830783E086C1860F91EF908F
:1003C000CF900895662311F061E001C060E0FC0168
:1003D00081850C948A04603238F4FC01E60FF11D2B
:1003E000E60FF11D518B408B08950F931F93CF9310
:1003F000DF931F92CDB7DEB78C01FC018681498364
:100400000E948A0460E0F80180850E948A042981A4
:1004100041E0F801648185810E94C00461E0F80137
:1004200080850F90DF91CF911F910F910C948A04DA
:10043000CF93DF93EC01862F6A850E940206292F55
:100440009E87842F90E06B8539E3639F612D112493
:10045000669570E06F5F7F4F0E940E068F87422F78
:10046000406860E0CE010E94F5014F85406460E085
:10047000CE01DF91CF910C94F5010F931F93CF9391
:10048000DF93EC0140E060E00E94180200E010E021
:100490009A858B85869586958695989FC0011124AF
:1004A0000817190750F44C854170419561E0CE0161
:1004B0000E94F5010F5F1F4FEBCF40E060E0CE01DF
:1004C000DF91CF911F910F910C941802CF93DF937E
:1004D000EC016A874B871E861F861C86FC0170967E
:1004E00080E4DF011D928A95E9F761E08C810E942A
:1004F000510461E08D810E94510461E08E810E946F
:10050000510461E08F810E94510461E088850E945E
:10051000510461E089850E94510460E0CE010E948F
:10052000E20161E08F810E948A0461E088850E9477
:100530008A0460E08F810E948A0464E670E080E0B3
:1005400090E00E94C50361E08F810E948A0441E22D
:1005500060E0CE010E94F50149EB60E0CE010E940F
:10056000F50189EB8D8746E060E0CE010E94F50140
:1005700043E160E0CE010E94F50140E260E0CE017F
:100580000E94F5014CE060E0CE010E94F501CE0131
:100590000E943D0240E860E0CE010E94F50140E487
:1005A00060E0CE01DF91CF910C94F501DF92EF92E4
:1005B000FF920F931F93CF93DF9300D000D01F9231
:1005C000CDB7DEB78C0167FD61C0E62FF0E0603289
:1005D00098F0B09785E08E9FB0018F9F700D112429
:1005E00068597F4F45E050E0CE0101960E945E06BB
:1005F000CE0101967C0115C03896EE0FFF1FE00F6B
:10060000F11FE080F180E114F10459F445E050E07D
:1006100068E670E0CE0101960E945E06FE0131960A
:100620007F0185E0D82EF8018485F701408180FDA7
:10063000409561E0C8010E94F501DA94FFEFEF1ADE
:10064000FF0AD110F0CFF80144854170419561E077
:10065000C8010E94F501F801868590E00696628542
:1006600070E00E940E068687892B99F4878590E0BA
:100670000196638529E3629F612D1124669570E0E0
:100680006F5F7F4F0E940E06878703C080E090E077
:1006900002C081E090E00F900F900F900F900F90AC
:1006A000DF91CF911F910F91FF90EF90DF90089510
:1006B0001F920F920FB60F9211242F933F938F9397
:1006C0009F93AF93BF938091750190917601A09114
:1006D0007701B09178013091740123E0230F2D3719
:1006E00020F40196A11DB11D05C026E8230F029636
:1006F000A11DB11D20937401809375019093760123
:10070000A0937701B09378018091790190917A015B
:10071000A0917B01B0917C010196A11DB11D809338
:10072000790190937A01A0937B01B0937C01BF91F2
:10073000AF919F918F913F912F910F900FBE0F908E
:100740001F9018953FB7F8948091790190917A01A4
:10075000A0917B01B0917C0126B5A89B05C02F3FDD
:1007600019F00196A11DB11D3FBF6627782F892F73
:100770009A2F620F711D811D911D42E0660F771F38
:10078000881F991F4A95D1F70895CF92DF92EF9273
:10079000FF92CF93DF936B017C010E94A203EB01D8
:1007A000C114D104E104F10489F00E9401060E9401
:1007B000A2036C1B7D0B683E734090F381E0C81A66
:1007C000D108E108F108C851DC4FEACFDF91CF91A1
:1007D000FF90EF90DF90CF900895789484B5826079
:1007E00084BD84B5816084BD85B5826085BD85B5D5
:1007F000816085BDEEE6F0E0808181608083E1E884
:10080000F0E01082808182608083808181608083BB
:10081000E0E8F0E0808181608083E1EBF0E08081BE
:1008200084608083E0EBF0E0808181608083EAE790
:10083000F0E0808184608083808182608083808119
:10084000816080838081806880831092C1000895D8
:10085000833081F028F4813099F08230A1F008953E
:100860008730A9F08830B9F08430D1F480918000CD
:100870008F7D03C0809180008F77809380000895E2
:1008800084B58F7702C084B58F7D84BD0895809133
:10089000B0008F7703C08091B0008F7D8093B0004F
:1008A0000895CF93DF9390E0FC01E45AFD4F24912B
:1008B000FC01E059FD4F8491882349F190E0880FB5
:1008C000991FFC01E257FD4FA591B4918C579D4FA4
:1008D000FC01C591D4919FB7611108C0F8948C9127
:1008E000209582238C93888182230AC0623051F440
:1008F000F8948C91322F309583238C938881822BAE
:10090000888304C0F8948C91822B8C939FBFDF91D5
:10091000CF9108950F931F93CF93DF931F92CDB77D
:10092000DEB7282F30E0F901E85BFD4F8491F90133
:10093000E45AFD4F1491F901E059FD4F0491002351
:10094000C9F0882321F069830E9428046981E02F7F
:10095000F0E0EE0FFF1FEC57FD4FA591B4919FB74C
:10096000F8948C91611103C01095812301C0812BF3
:100970008C939FBF0F90DF91CF911F910F9108959E
:10098000BF92CF92DF92EF92FF920F931F93CF937C
:10099000DF93C82ED62EB42EC7E0D0E0022F10E091
:1009A00087E0E82EF12CB1100AC0F701EC1BFD0B1B
:1009B000B80102C075956795EA95E2F707C0B801DE
:1009C0000C2E02C0759567950A94E2F7617077273F
:1009D0008C2D0E948A0461E08D2D0E948A0460E0C3
:1009E0008D2D0E948A042197F0F6DF91CF911F91FF
:1009F0000F91FF90EF90DF90CF90BF9008950895F2
:100A00000E94ED030E94FF040E947701C0E0D0E045
:100A10000E9498012097E1F30E940000F9CFCF9245
:100A2000DF92EF92FF920F931F93CF93DF936C01AE
:100A30007A01EB01E60EF71E00E010E0CE15DF05AF
:100A400061F06991D601ED91FC910190F081E02D6A
:100A5000C6010995080F191FF1CFC801DF91CF9189
:100A60001F910F91FF90EF90DF90CF900895611547
:100A7000710581F0DB010D900020E9F7AD014150D7
:100A80005109461B570BDC01ED91FC910280F3816B
:100A9000E02D099480E090E008950C943705DC0186
:100AA000ED91FC910190F081E02D09948F929F923D
:100AB000AF92BF92CF92DF92EF92FF920F931F936C
:100AC000CF93DF93CDB7DEB7A1970FB6F894DEBF13
:100AD0000FBECDBF7C01C42EE52FCB01D22E19A2B3
:100AE00021E02D1510F02AE0D22E8E010F5D1F4F50
:100AF0008D2C912CA12CB12C6C2D7E2FA501940155
:100B00000E9422068C2DD29E8019112401501109B9
:100B10008A3014F4805D01C0895CF801808321155E
:100B200031054105510521F0C22EE32FCA01E4CF62
:100B3000B801C7010E943705A1960FB6F894DEBF31
:100B40000FBECDBFDF91CF911F910F91FF90EF901E
:100B5000DF90CF90BF90AF909F908F900895CF92ED
:100B6000DF92EF92FF920F931F93CF93DF93EC01ED
:100B70006A017B012115310579F4E881F981019041
:100B8000F081E02D642FDF91CF911F910F91FF90A5
:100B9000EF90DF90CF9009942A303105E9F477FF88
:100BA0001AC06DE20E944F058C0144275527BA01F7
:100BB0004C195D096E097F092AE0CE010E94560595
:100BC000800F911FDF91CF911F910F91FF90EF90B8
:100BD000DF90CF9008952AE0B701A601CE01DF9102
:100BE000CF911F910F91FF90EF90DF90CF900C94D9
:100BF00056059A01AB01662757FD6095762F0C9438
:100C0000AF050895991B79E004C0991F961708F065
:100C1000961B881F7A95C9F78095089597FB072E34
:100C200016F4009407D077FD09D00E94440607FC13
:100C300005D03EF4909581959F4F089570956195EC
:100C40007F4F0895A1E21A2EAA1BBB1BFD010DC008
:100C5000AA1FBB1FEE1FFF1FA217B307E407F5076C
:100C600020F0A21BB30BE40BF50B661F771F881F48
:100C7000991F1A9469F760957095809590959B01DE
:100C8000AC01BD01CF010895AA1BBB1B51E107C0F8
:100C9000AA1FBB1FA617B70710F0A61BB70B881F0C
:100CA000991F5A95A9F780959095BC01CD0108959B
:100CB000EE0FFF1F0590F491E02D0994FB01DC017C
:100CC00002C005900D9241505040D8F70895F89415
:020CD000FFCF54
:100CD20000007D01800048656C6C6F2C20576F729C
:100CE2006C642100103430341000000000D6020F72
:020CF2000500FB
:00000001FF
